:020000040000fa
:080000000001040000000000f3
:020000040000fa
:10020000ef8220000eff20000e0188000000000099
:100210000c00070000492000010020001100070029
:10022000000020000000e000020032000000020098
:1002300000000000dc040200000000000040da00c2
:100240000000fe004440a900c00020000000e000c3
:100250000300320000002000a00188004440a800f4
:100260000000060091018800800078000000eb008b
:1002700015003700e280400032a0b4009101ba00be
:10028000e280400032a0b4009102ba00e280400057
:1002900032a0b4000002eb00472bde00f507b200ed
:1002a000602ce10004003a000059eb008301e900f2
:1002b000fdff3e00040037006128e100010032002c
:1002c0000082eb00040007001101ba000200e00008
:1002d000e8ff3a00000006003159ba008301e90046
:1002e0000c0032002159ba008301e90008003200f5
:1002f0000400e00003003a00e280400032a0b400b5
:10030000f5ff370011d9ba008301e900faff3a007e
:100310008100e800e180400032a0b4000000060047
:100320000040da000000fe008520a9008540a900f9
:10033000e7416000c419dd00810920009140780088
:10034000f2c8b30082c0600083c070008000fd006e
:1003500098e0b7008000fd00800178000307b2003c
:10036000c419de00910920009140780082cfb300cb
:1003700082c0600083c070008000fd0099e0b7007b
:100380008000fd00680160004311de000241410071
:10039000d1082000914078000114a10082c07000b3
:1003a0008000fd008de0b7008000fd000008b20075
:1003b0004700de004200dd00d108200091407800b7
:1003c0000124a10080c07000010078008de0b7001a
:1003d00000000600a21088006010880071108800dc
:1003e00000000600889fbe000004be000600370023
:1003f0000804e8000000fb008900780012000700f4
:10040000e10f400004003200184078000004e000d2
:10041000f7ff3a000000eb004f04be0000000600aa
:10042000881f7800e1802000eeff070000047800bc
:10043000e1802000a00020000300070008007800f1
:100440004f04780000000600889fbe00000178007d
:1004500001047800b10090000118a30040003200b0
:100460000198a30003003a00180090000000e0008b
:100470003b003a000190a00031049800820478000b
:10048000f90fb200180090000000e00002003a00ee
:1004900028009000000c7800ea8f540006003a0013
:1004a000380090000078a30003003a00880078002c
:1004b000d0002000e4ff0700180290006121b9007d
:1004c00058009000e8009000800f5100818f590083
:1004d0000b0032000400e8001004980018007800b7
:1004e00009587800000c780011c0b300a0822000e9
:1004f00001487800ea8f54000600320019003700e6
:10050000880078000940780019000700800478000e
:1005100014003700380090000088a300110032005a
:1005200018019000a80090004800900053000700b8
:1005300098009000810f50000400320038009000b5
:100540000003b300300498008084eb000000eb004f
:100550001004980028009000000c7800010037007b
:100560008084eb00090078004f04be000000060004
:100570000200fa00889fbe00a0ff9f0001047800df
:10058000b1009000810478000904b200020032003a
:100590000000fb00360037000118a30005003a00f8
:1005a0000103b30031049800190498000080eb00a7
:1005b0002f003700580090000000e00006003a00cd
:1005c0004800900012002000e68057002b00070032
:1005d0001904980024003700280090000000e00073
:1005e00008003a006082200020049800000c780087
:1005f0002000200050049800100498000130a00052
:100600003104980018019000a80090004800900064
:100610001a00070028009000000c78000080eb0012
:100620001004980018007800aff89700015878007f
:10063000000c78002ff89700ea4f50000a003a00ab
:10064000380090000088a3000700320018019000d5
:10065000a8009000480090000800070019049800c6
:10066000a8009000010c7800aff897000100fb0093
:100670004f04be000080fa00000006000a00fa00e5
:1006800080017800e20f500028003e0060418000a9
:10069000e10f500008003200e02120000000e000df
:1006a000050032006421200085212000a6212000c1
:1006b0008001780004003700c4202000e5202000dd
:1006c0000621200043212000144090000004e00097
:1006d000040035008009eb00144090000074a00075
:1006e00010429800154090000028a30003003a0033
:1006f000154090000024a000904298008001eb007b
:1007000007003700154090000008a300fdff3200ed
:1007100063c078000000fb00000b78008301e80054
:10072000828f5100f7ff3a000800370030002000a8
:10073000b0bf9f00c3bf9f00d1bf9f00e2bf9f001b
:100740006a80570000c0da006fb997000200780095
:080750000080fa000000060021
:020000040000fa
:0200000401f009
:0400000000c100003b
:020000040000fa
:0200000401f009
:040004003f000000b9
:020000040000fa
:1000080090010000900100009001000090010000a4
:100018009001000090010000900100009001000094
:100028009001000090010000900100009001000084
:100038009001000090010000900100009001000074
:100048009001000090010000900100009001000064
:100058009001000090010000900100009001000054
:100068009001000090010000900100009001000044
:100078009001000090010000900100009001000034
:100088009001000090010000900100009001000024
:100098009001000090010000900100009001000014
:1000a8009001000090010000900100009001000004
:1000b80090010000900100009001000090010000f4
:1000c80090010000900100009001000090010000e4
:1000d80090010000900100009001000090010000d4
:1000e80090010000900100009001000090010000c4
:0800f8009001000090010000de
:020000040000fa
:1001080090010000900100009001000090010000a3
:100118009001000090010000900100009001000093
:100128009001000090010000900100009001000083
:100138009001000090010000900100009001000073
:100148009001000090010000900100009001000063
:100158009001000090010000900100009001000053
:100168009001000090010000900100009001000043
:100178009001000090010000900100009001000033
:100188009001000090010000900100009001000023
:100198009001000090010000900100009001000013
:1001a8009001000090010000900100009001000003
:1001b80090010000900100009001000090010000f3
:1001c80090010000900100009001000090010000e3
:1001d80090010000900100009001000090010000d3
:1001e80090010000900100009001000090010000c3
:0801f8009001000090010000dd
:020000040000fa
:100758004543000045200000527500006c6500000c
:08076800732100000d000000e8
:020000040000fa
:100770000000fa0070f72f00ebfe070022002000b7
:10078000f17d2f00800b2a0012ff07000080fa0085
:10079000000006000600fa00200798002e009000d6
:1007a0006103b80086007800307320000009b800ab
:1007b0006030b9000302780000024200307320006c
:1007c00000b8b9000002420084017800028fbe0028
:1007d0001e00be006a0007000080fa00000006004c
:1007e0000400fa0010079800a1e2a9008560a900a2
:1007f0009109200091407800f0c8b30000c060006b
:1008000099e0b7008d60a900a682a9001e009000a3
:100810006f4060006f416000612a200091407800c5
:1008200000cfb30000c0600002407000a6e2b70035
:100830000000eb005015880090042e002015880061
:1008400000bc20001015880090c12f000015880002
:10085000c01220000100200049000700a022a800cb
:10086000c01220000100200045000700a022a900be
:10087000a0c2bf00614060000004e000fcff320045
:1008800000148000000f7800a1e2a9001e0078008b
:100890000080fa00000006000000fa00ffff3700a9
:1008a0000000fa000000eb000008880004c1a80066
:1008b0000421a90005e1a8000080fa00000006005c
:1008c0000000fa0005e1a9000080fa00000006001f
:1008d0000000fa00000880000080fa000000060016
:1008e0000000fa000000eb003008880010c1a800ea
:1008f0001021a90011e1a8000080fa000000060004
:100900000000fa0011e1a9000080fa0000000600d2
:100910000000fa00300880000080fa0000000600a5
:020000040000fa
:100920000008000026000000020000000208280065
:10093000080000002808090000000000020026004e
:100940000800000026080600020100000000000068
:10095000000000000000060002020000000000008d
:100960002608000006000000000000002c0800001f
:100970000200000002000000010000000000000072
:020000040000fa
:10098000f03fb1000180b10006003500ee03090020
:1009900000000000403fb1000180b100fbff3d00be
:1009a0001000b000203fb0000200350000800900b8
:0809b000000000000000060039
:020000040000fa
:1009b8000000fa006cff0700c03a280096fe070006
:1009c800b3ff07000000eb000080fa0000000600fb
:00000001FF
