:020000040000fa
:080000000001040000000000f3
:020000040000fa
:10020000ef8220000eff20000e0188000000000099
:100210000c000700a08a2000010020001100070048
:10022000000020000000e000020032000000020098
:100230000000000044080200000000000040da0056
:100240000000fe004440a900401b20000000e00028
:100250000300320000002000a00188004440a800f4
:100260000000060091018800800078000000eb008b
:1002700015003700e280400032a0b4009101ba00be
:10028000e280400032a0b4009102ba00e280400057
:1002900032a0b4000002eb00472bde00f507b200ed
:1002a000602ce10004003a000059eb008301e900f2
:1002b000fdff3e00040037006128e100010032002c
:1002c0000082eb00040007001101ba000200e00008
:1002d000e8ff3a00000006003159ba008301e90046
:1002e0000c0032002159ba008301e90008003200f5
:1002f0000400e00003003a00e280400032a0b400b5
:10030000f5ff370011d9ba008301e900faff3a007e
:100310008100e800e180400032a0b4000000060047
:100320000040da000000fe008520a9008540a900f9
:10033000e7416000c419dd00810920009140780088
:10034000f2c8b30082c0600083c070008000fd006e
:1003500098e0b7008000fd00800178000307b2003c
:10036000c419de00910920009140780082cfb300cb
:1003700082c0600083c070008000fd0099e0b7007b
:100380008000fd00680160004311de000241410071
:10039000d1082000914078000114a10082c07000b3
:1003a0008000fd008de0b7008000fd000008b20075
:1003b0004700de004200dd00d108200091407800b7
:1003c0000124a10080c07000010078008de0b7001a
:1003d00000000600a21088006010880071108800dc
:1003e00000000600889fbe000004be000600370023
:1003f0000804e8000000fb008900780012000700f4
:10040000e10f400004003200184078000004e000d2
:10041000f7ff3a000000eb004f04be0000000600aa
:10042000881f7800e1802000eeff070000047800bc
:10043000e1802000a00020000300070008007800f1
:100440004f04780000000600889fbe00000178007d
:1004500001047800b10090000118a30040003200b0
:100460000198a30003003a00180090000000e0008b
:100470003b003a000190a00031049800820478000b
:10048000f90fb200180090000000e00002003a00ee
:1004900028009000000c7800ea8f540006003a0013
:1004a000380090000078a30003003a00880078002c
:1004b000d0002000e4ff0700180290006121b9007d
:1004c00058009000e8009000800f5100818f590083
:1004d0000b0032000400e8001004980018007800b7
:1004e00009587800000c780011c0b300a0822000e9
:1004f00001487800ea8f54000600320019003700e6
:10050000880078000940780019000700800478000e
:1005100014003700380090000088a300110032005a
:1005200018019000a80090004800900053000700b8
:1005300098009000810f50000400320038009000b5
:100540000003b300300498008084eb000000eb004f
:100550001004980028009000000c7800010037007b
:100560008084eb00090078004f04be000000060004
:100570000200fa00889fbe00a0ff9f0001047800df
:10058000b1009000810478000904b200020032003a
:100590000000fb00360037000118a30005003a00f8
:1005a0000103b30031049800190498000080eb00a7
:1005b0002f003700580090000000e00006003a00cd
:1005c0004800900012002000e68057002b00070032
:1005d0001904980024003700280090000000e00073
:1005e00008003a006082200020049800000c780087
:1005f0002000200050049800100498000130a00052
:100600003104980018019000a80090004800900064
:100610001a00070028009000000c78000080eb0012
:100620001004980018007800aff89700015878007f
:10063000000c78002ff89700ea4f50000a003a00ab
:10064000380090000088a3000700320018019000d5
:10065000a8009000480090000800070019049800c6
:10066000a8009000010c7800aff897000100fb0093
:100670004f04be000080fa00000006000a00fa00e5
:1006800080017800e20f500028003e0060418000a9
:10069000e10f500008003200e02120000000e000df
:1006a000050032006421200085212000a6212000c1
:1006b0008001780004003700c4202000e5202000dd
:1006c0000621200043212000144090000004e00097
:1006d000040035008009eb00144090000074a00075
:1006e00010429800154090000028a30003003a0033
:1006f000154090000024a000904298008001eb007b
:1007000007003700154090000008a300fdff3200ed
:1007100063c078000000fb00000b78008301e80054
:10072000828f5100f7ff3a000800370030002000a8
:10073000b0bf9f00c3bf9f00d1bf9f00e2bf9f001b
:100740006a80570000c0da006fb997000200780095
:080750000080fa000000060021
:020000040000fa
:0200000401f009
:0400000000c100003b
:020000040000fa
:0200000401f009
:040004003f000000b9
:020000040000fa
:1000080090010000900100009001000090010000a4
:100018009001000090010000900100009001000094
:100028009001000090010000900100009001000084
:100038009001000090010000900100009001000074
:100048009001000090010000900100009001000064
:100058009001000090010000900100009001000054
:100068009001000090010000900100009001000044
:100078009001000090010000900100009001000034
:100088009001000090010000900100009001000024
:100098009001000090010000900100009001000014
:1000a8009001000090010000900100009001000004
:1000b80090010000900100009001000090010000f4
:1000c80090010000900100009001000090010000e4
:1000d80090010000900100009001000090010000d4
:1000e80090010000900100009001000090010000c4
:0800f8009001000090010000de
:020000040000fa
:1001080090010000900100009001000090010000a3
:100118009001000090010000900100009001000093
:100128009001000090010000900100009001000083
:100138009001000090010000900100009001000073
:100148009001000090010000900100009001000063
:100158009001000090010000900100009001000053
:100168009001000090010000900100009001000043
:100178009001000090010000900100009001000033
:100188009001000090010000900100009001000023
:100198009001000090010000900100009001000013
:1001a8009001000090010000900100009001000003
:1001b80090010000900100009001000090010000f3
:1001c80090010000900100009001000090010000e3
:1001d80090010000900100009001000090010000d3
:1001e80090010000900100009001000090010000c3
:0801f8009001000090010000dd
:020000040000fa
:1007580054680000652000007265000064200000f5
:100768004c4500004420000069730000206f000021
:100778006e2e000000540000686500002072000022
:1007880065640000204c000045440000206900001a
:10079800732000006f660000662e00000054000001
:1007a800686500002067000072650000656e000043
:1007b800204c000045440000206900007320000020
:1007c8006f6e00002e0000005468000065200000d5
:1007d80067720000656500006e2000004c4500004f
:1007e8004420000069730000206f00006666000066
:1007f8002e0000006d6f0000746f0000727300001f
:100808004f660000660000006c650000667400001a
:100818004d6f0000746f0000724600006f72000098
:100828007761000072640000006c000065660000db
:10083800744d00006f7400006f7200004261000088
:10084800636b0000776100007264000000720000b2
:1008580069670000687400004d6f0000746f000045
:10086800724600006f720000776100007264000039
:100878000072000069670000687400004d6f000096
:10088800746f000072420000616300006b77000023
:1008980061720000640000005468000065200000d8
:1008a800726f0000626f000074200000697300001e
:1008b8002075000070200000616e000064200000b8
:1008c800727500006e6e0000696e000067210000fe
:1008d80021000000526f0000626f000074200000c9
:1008e800776900006c6c00002073000068750000d8
:1008f80074200000646f0000776e00002e2e000048
:100908002e20000000490000206100006d2000003a
:100918006d6f0000766900006e67000020660000b9
:100928006f720000776100007264000000490000e7
:10093800206100006d2000006d6f000076690000e6
:100948006e67000020620000616300006b770000a2
:10095800617200006400000049200000616d000021
:1009680020700000697600006f740000696e000056
:1009780067200000726900006768000074000000ca
:1009880049200000616d00002070000069760000b9
:100998006f740000696e0000672000006c6500003d
:1009a800667400000000000049200000616d00002e
:1009b800206900006e2000007468000065200000b7
:1009c80074650000737400002073000075690000ee
:1009d8007465000000490000276d000020690000d0
:1009e8006e20000074680000652000006d6f000034
:1009f800746f0000722000007465000073740000ba
:100a08002e000000492700006d200000696e0000dc
:100a1800207400006865000020620000756d000009
:100a28007065000072200000746500007374000097
:100a38002e000000492700006d200000696e0000ac
:100a48002074000068650000206c000069670000e1
:100a5800687400002074000065730000742e0000a4
:100a680000000000492700006d200000696e0000aa
:100a78002074000068650000206d000061690000b6
:100a88006e210000007400006573000074200000ef
:100a9800706900006e200000332000000074000020
:100aa8006573000074200000706900006e2000006b
:080ab8003420000000000000e2
:020000040000fa
:100ac0000000fa000045280055fe0700ed00070071
:100ad0003a000700a00f20006f0007003700070052
:100ae000a00f20006c00070034000700a00f2000ba
:100af0006900070049000700a00f200066000700fa
:100b000046000700a00f2000630007004300070015
:100b1000a00f20006000070028000700a00f2000a1
:100b20005d00070025000700a00f20005a00070005
:100b300022000700a00f2000570007001f00070039
:100b4000a00f2000540007003f000700a00f200066
:100b50005100070025000700a00f20004e000700ed
:100b600022000700a00f20004b0007001f00070015
:100b7000a00f2000480007001c000700a00f200065
:100b80004500070019000700a00f200042000700e1
:100b90002d000700a00f20003f0007002a000700db
:100ba000a00f20003c000700e04628001cfe0700c4
:100bb0007a0007000080fa00000006000000fa003a
:100bc0007048280016fe0700d3000700de0007006b
:100bd000b6000700803e20002f000700c900070074
:100be000a80007000080fa00000006000000fa00dc
:100bf000b04928000afe0700cd000700d800070012
:100c0000aa000700803e200023000700bd00070067
:100c10009c0007000080fa00000006000000fa00b7
:100c2000004b2800fefd0700bb0007009f000700e7
:100c3000803e200018000700b20007009100070066
:100c40000080fa00000006000000fa00404c280076
:100c5000f3fd0700bc00070094000700803e200061
:100c60000d000700a7000700860007000080fa00bb
:100c7000000006000000fa0070f72f00aafd070030
:100c800022002000f17d2f00800b2a00d1fd0700fb
:100c90000080fa00000006000600fa002007980015
:100ca0002e0090006103b8008600780030732000a9
:100cb0000009b8006030b900030278000002420069
:100cc0003073200000b8b9000002420084017800af
:100cd000028fbe001e00be00360107000080fa0031
:100ce000000006000400fa0010079800a1e2a90025
:100cf0008560a9009109200091407800f0c8b300f8
:100d000000c0600099e0b7008d60a900a682a9002c
:100d10001e0090006f4060006f416000612a20005b
:100d20009140780000cfb30000c060000240700026
:100d3000a6e2b7000000eb005015880090042e00da
:100d40002015880000bc20001015880090c12f00dd
:100d500000158800c01220000100200015010700c6
:100d6000a022a800c01220000100200011010700ed
:100d7000a022a900a0c2bf00614060000004e00002
:100d8000fcff320000148000000f7800a1e2a900ef
:100d90001e0078000080fa00000006000000fa0043
:100da000ffff37000000fa000000eb000008880099
:100db00004c1a8000421a90005e1a8000080fa00f0
:100dc000000006000000fa0005e1a9000080fa001a
:100dd000000006000000fa00000880000080fa0011
:100de000000006000000fa000000eb003008880058
:100df00010c1a8001021a90011e1a8000080fa008c
:100e0000000006000000fa0011e1a9000080fa00cd
:100e1000000006000000fa00300880000080fa00a0
:100e2000000006000000fa00c03a28007cfd070020
:100e3000ca62a8000080fa00000006000000fa0064
:100e4000f03b280076fd0700ca62a9000080fa0086
:100e5000000006000000fa00303d280070fd070089
:100e6000ca82a8000080fa00000006000000fa0014
:100e7000803e28006afd0700ca82a9000080fa00af
:100e8000000006000000fa00e03f280064fd0700b3
:100e9000cb22a900cb02a900cae2a900cac2a900bc
:100ea000180007000080fa00000006000000fa00a9
:100eb000cbc2bf00614060000004e00004003a00c3
:100ec000cbc2bf00624060000004e00001003200bd
:100ed000e0ff0700cac2bf0001c8b30001406000c4
:100ee0000004e00004003a00cac2bf000044b2009f
:100ef0000004e00001003200caff07000080fa0091
:100f0000000006000000fa00ccff0700d7ff070032
:100f10000080fa00000006000000fa00804028006f
:100f20003ffd0700cb22a8000080fa000000060069
:100f30000000fa009041280039fd0700cb02a8000c
:100f40000080fa00000006000000fa00b04228000d
:100f500033fd0700cae2a8000080fa000000060086
:100f60000000fa00d04328002dfd0700cac2a800e7
:100f70000080fa00000006000000fa00804d280002
:100f800027fd0700c8c2bf00624060000004e00007
:100f900006003200c8c2bf00644060000004e000e8
:100fa00002003a000e0007000b003700c8c2bf0065
:100fb000624060000004e00006003a00c8c2bf00c2
:100fc000644060000004e0000200320024000700da
:100fd00001003700270007000080fa00000006002b
:100fe0000000fa00f04e28000dfd0700a5ff0700e5
:100ff000c9ff0700adff0700803e200026ff070065
:10100000a0ff0700401f200023ff0700c8ff0700c4
:10101000a6ff0700803e20001fff070099ff070082
:10102000401f20001cff0700c7ff07009fff0700ad
:10103000803e200018ff070092ff0700401f20009d
:1010400015ff0700c6ff070098ff0700803e20003d
:1010500011ff07008bff07000080fa000000060068
:101060000000fa0060502800edfc07000080fa0044
:10107000000006000000fa00e0512800e8fc07002c
:101080000080fa00000006000000fa00f9fe0700e8
:101090001d00070060532800e1fc0700c8c2bf0024
:1010a000624060000004e00002003200705428003a
:1010b000dbfc0700c8c2bf00644060000004e00021
:1010c0000200320030552800d5fc0700c8c2bf001e
:1010d000624060000004e00004003a00c8c2bf00a3
:1010e000644060000004e00002003200a2ff07003c
:1010f0000100370072fe070028ff07000000eb0028
:101100000080fa00000006000000fa00c662a90094
:10111000a862a800c682a900a882a800c622a800ca
:10112000a822a800c642a800a842a800c722a90079
:10113000c702a900c6e2a900c6c2a900a922a80048
:10114000a902a800a8e2a800a8c2a8000080fa008e
:041150000000060095
:020000040000fa
:101154000008000026000000020000000208280029
:101164000800000028080900000000000200260012
:10117400080000002608060002010000000000002c
:101184000000000000000600020200000000000051
:101194002608000006000000000000002c080000e3
:1011a4000200000002000000010000000000000036
:020000040000fa
:1011b400f03fb1000180b10006003500ee030900e4
:1011c40000000000403fb1000180b100fbff3d0082
:1011d4001000b000203fb00002003500008009007c
:0811e4000000000000000600fd
:00000001FF
