:020000040000fa
:080000000001040000000000f3
:020000040000fa
:10020000ef8220000eff20000e0188000000000099
:100210000c000700609c2000010020001100070076
:10022000000020000000e000020032000000020098
:100230000000000054090200000000000040da0045
:100240000000fe004440a900001a20000000e00069
:100250000300320000002000a00188004440a800f4
:100260000000060091018800800078000000eb008b
:1002700015003700e280400032a0b4009101ba00be
:10028000e280400032a0b4009102ba00e280400057
:1002900032a0b4000002eb00472bde00f507b200ed
:1002a000602ce10004003a000059eb008301e900f2
:1002b000fdff3e00040037006128e100010032002c
:1002c0000082eb00040007001101ba000200e00008
:1002d000e8ff3a00000006003159ba008301e90046
:1002e0000c0032002159ba008301e90008003200f5
:1002f0000400e00003003a00e280400032a0b400b5
:10030000f5ff370011d9ba008301e900faff3a007e
:100310008100e800e180400032a0b4000000060047
:100320000040da000000fe008520a9008540a900f9
:10033000e7416000c419dd00810920009140780088
:10034000f2c8b30082c0600083c070008000fd006e
:1003500098e0b7008000fd00800178000307b2003c
:10036000c419de00910920009140780082cfb300cb
:1003700082c0600083c070008000fd0099e0b7007b
:100380008000fd00680160004311de000241410071
:10039000d1082000914078000114a10082c07000b3
:1003a0008000fd008de0b7008000fd000008b20075
:1003b0004700de004200dd00d108200091407800b7
:1003c0000124a10080c07000010078008de0b7001a
:1003d00000000600a21088006010880071108800dc
:1003e00000000600889fbe000004be000600370023
:1003f0000804e8000000fb008900780012000700f4
:10040000e10f400004003200184078000004e000d2
:10041000f7ff3a000000eb004f04be0000000600aa
:10042000881f7800e1802000eeff070000047800bc
:10043000e1802000a00020000300070008007800f1
:100440004f04780000000600889fbe00000178007d
:1004500001047800b10090000118a30040003200b0
:100460000198a30003003a00180090000000e0008b
:100470003b003a000190a00031049800820478000b
:10048000f90fb200180090000000e00002003a00ee
:1004900028009000000c7800ea8f540006003a0013
:1004a000380090000078a30003003a00880078002c
:1004b000d0002000e4ff0700180290006121b9007d
:1004c00058009000e8009000800f5100818f590083
:1004d0000b0032000400e8001004980018007800b7
:1004e00009587800000c780011c0b300a0822000e9
:1004f00001487800ea8f54000600320019003700e6
:10050000880078000940780019000700800478000e
:1005100014003700380090000088a300110032005a
:1005200018019000a80090004800900053000700b8
:1005300098009000810f50000400320038009000b5
:100540000003b300300498008084eb000000eb004f
:100550001004980028009000000c7800010037007b
:100560008084eb00090078004f04be000000060004
:100570000200fa00889fbe00a0ff9f0001047800df
:10058000b1009000810478000904b200020032003a
:100590000000fb00360037000118a30005003a00f8
:1005a0000103b30031049800190498000080eb00a7
:1005b0002f003700580090000000e00006003a00cd
:1005c0004800900012002000e68057002b00070032
:1005d0001904980024003700280090000000e00073
:1005e00008003a006082200020049800000c780087
:1005f0002000200050049800100498000130a00052
:100600003104980018019000a80090004800900064
:100610001a00070028009000000c78000080eb0012
:100620001004980018007800aff89700015878007f
:10063000000c78002ff89700ea4f50000a003a00ab
:10064000380090000088a3000700320018019000d5
:10065000a8009000480090000800070019049800c6
:10066000a8009000010c7800aff897000100fb0093
:100670004f04be000080fa00000006000a00fa00e5
:1006800080017800e20f500028003e0060418000a9
:10069000e10f500008003200e02120000000e000df
:1006a000050032006421200085212000a6212000c1
:1006b0008001780004003700c4202000e5202000dd
:1006c0000621200043212000144090000004e00097
:1006d000040035008009eb00144090000074a00075
:1006e00010429800154090000028a30003003a0033
:1006f000154090000024a000904298008001eb007b
:1007000007003700154090000008a300fdff3200ed
:1007100063c078000000fb00000b78008301e80054
:10072000828f5100f7ff3a000800370030002000a8
:10073000b0bf9f00c3bf9f00d1bf9f00e2bf9f001b
:100740006a80570000c0da006fb997000200780095
:080750000080fa000000060021
:020000040000fa
:0200000401f009
:0400000000c100003b
:020000040000fa
:0200000401f009
:040004003f000000b9
:020000040000fa
:1000080090010000900100009001000090010000a4
:100018009001000090010000900100009001000094
:100028009001000090010000900100009001000084
:100038009001000090010000900100009001000074
:100048009001000090010000900100009001000064
:100058009001000090010000900100009001000054
:100068009001000090010000900100009001000044
:100078009001000090010000900100009001000034
:100088009001000090010000900100009001000024
:100098009001000090010000900100009001000014
:1000a8009001000090010000900100009001000004
:1000b80090010000900100009001000090010000f4
:1000c80090010000900100009001000090010000e4
:1000d80090010000900100009001000090010000d4
:1000e80090010000900100009001000090010000c4
:0800f8009001000090010000de
:020000040000fa
:1001080090010000900100009001000090010000a3
:100118009001000090010000900100009001000093
:100128009001000090010000900100009001000083
:100138009001000090010000900100009001000073
:100148009001000090010000900100009001000063
:100158009001000090010000900100009001000053
:100168009001000090010000900100009001000043
:100178009001000090010000900100009001000033
:100188009001000090010000900100009001000023
:100198009001000090010000900100009001000013
:1001a8009001000090010000900100009001000003
:1001b80090010000900100009001000090010000f3
:1001c80090010000900100009001000090010000e3
:1001d80090010000900100009001000090010000d3
:1001e80090010000900100009001000090010000c3
:0801f8009001000090010000dd
:020000040000fa
:1007580049200000616d0000206900006e20000043
:100768007468000065200000746500007374000060
:1007780020730000756900007465000000490000de
:10078800276d0000206900006e20000074680000da
:10079800652000006d6f0000746f0000722000007b
:1007a80074650000737400002e00000049270000e3
:1007b8006d200000696e000020740000686500006c
:1007c80020620000756d0000706500007220000056
:1007d80074650000737400002e0000007468000047
:1007e800652000006c65000066740000207300003e
:1007f80077690000746300006820000069730000d6
:10080800206300006c6f0000736500006400000046
:1008180074680000652000007269000067680000c5
:10082800742000007377000069740000636800009a
:100838002069000073200000636c00006f730000e3
:100848006564000000490000276d00002069000071
:100858006e20000074680000652000006c690000cc
:10086800676800007420000074650000737400005d
:100878002e0000006400000064000000500000002a
:100888005f0000000f0000001e0000005000000084
:100898003c0000005468000065200000726f0000f2
:1008a800626f00007420000069730000207500006a
:1008b80070200000616e0000642000007275000066
:1008c8006e6e0000696e00006721000021000000c4
:1008d80049200000616d0000206d00006f76000067
:1008e800696e000067200000666f000072770000e4
:1008f800617200006400000049200000616d000082
:10090800206d00006f760000696e0000672000000f
:1009180062610000636b0000776100007264000090
:1009280000490000206100006d200000706900008f
:10093800766f0000746900006e6700002072000086
:100948006967000068740000004900002061000029
:100958006d20000070690000766f00007469000067
:100968006e670000206c00006566000074000000df
:1009780074680000652000006c610000746300006a
:100988006820000069730000207200006573000091
:1009980065740000006d00006f7400006f72000045
:1009a800734f000066660000006c0000656600007a
:1009b800744d00006f7400006f720000466f0000f5
:1009c8007277000061720000640000006c6500002e
:1009d800667400004d6f0000746f000072420000e2
:1009e800616300006b770000617200006400000022
:1009f8007269000067680000744d00006f740000a1
:100a08006f720000466f000072770000617200008c
:100a1800640000007269000067680000744d0000ff
:100a28006f7400006f72000042610000636b000089
:100a38007761000072640000000000004927000090
:100a48006d200000696e00002074000068650000d9
:100a5800206d0000616900006e2100000074000034
:100a68006573000074200000706900006e200000ab
:100a7800332000000074000065730000742000003b
:100a8800706900006e2000003420000000000000a3
:020000040000fa
:100a98000000fa00e04428005ffe07000400070099
:100aa8001100070000228400e3000700fbff370065
:100ab8000000fa00c046280057fe0700e0010700c2
:100ac80030228400dc000700e9010700c1010700ab
:100ad80010228400d8000700d4010700b3010700e2
:100ae8000080fa00000006000600fa000000eb0093
:100af800200798000000eb00100798000000eb00aa
:100b0800000f7800d5c2bf00624060000004e0001a
:100b180009003200c8c2bf000042b2000004e00071
:100b28000500320010002000100798001000200077
:100b3800000f780010003700d5c2bf006240600087
:100b48000004e000030032001000200010079800a5
:100b580009003700c8c2bf000042b2000004e0002c
:100b68000300320010002000000f78000200370058
:100b7800a0002000b00007001e0090000000e00068
:100b88000b0032001e00e00009003a00f02184004a
:100b9800a900070073000700f0218400a6000700e1
:100ba8008e000700f0218400a3000700c0ff0700a3
:100bb8001e00e0000c0032001e0090000000e00063
:100bc80009003a00f02184009b0007006500070037
:100bd800f02184009800070072000700f0218400cb
:100be80095000700b2ff07001e0090000000e0001b
:100bf800110032001e00e0000f003200f0218400d6
:100c08008d00070057000700f02184008a000700c4
:100c180072000700f0218400870007006f000700ba
:100c2800f0218400840007006c000700f021840094
:100c3800810007009eff0700a00020007e0007003b
:100c48001e0090000000e00002003a001e00e000d4
:100c5800010032003c010700f02184007600070003
:100c68000080fa00000006000200fa004f010700a9
:100c78000000eb00000f78000000eb00000f780088
:100c8800020037008aff07001e0fe800200020003e
:100c98009e0f1000fbff340044010700002284006f
:100ca800650007000000eb00000f78000200370025
:100cb8003c0007001e0fe800200020009e0f1000d7
:100cc800fbff340039010700002284005a000700a6
:100cd8000000eb00000f78000200370074ff0700e7
:100ce8001e0fe800300020009e0f1000fbff3400ac
:100cf8002e010700002284004f000700370007007c
:100d08002a010700002284004b0007000000eb00c6
:100d1800000f780002003700120007001e0fe800dd
:100d2800400020009e0f1000fbff34001f01070049
:100d380000228400400007000000eb00000f78004c
:100d480002003700250007001e0fe80010002000f1
:100d58009e0f1000fbff3400140107000080fa000a
:100d6800000006000000fa0000482800aafd07005d
:100d780045010700402284002f00070036010700c4
:100d880014010700202284002b0007002701070018
:100d980006010700f0218400270007000080fa0000
:100da800000006000000fa00504928009afd0700dc
:100db80023010700340107000601070050228400c0
:100dc8001d00070019010700f8000700f021840042
:100dd800190007000080fa00000006000000fa0071
:100de800904a28008cfd0700210107001a0107001e
:100df800f8000700602284000f0007000b010700bd
:100e0800ea000700f02184000b0007000080fa00c8
:100e1800000006000000fa0070f72f0040fd0700f0
:100e280022002000f17d2f00800b2a0067fd0700bb
:100e38000080fa00000006000600fa00200798006b
:100e48002e0090006103b8008600780030732000ff
:100e58000009b8006030b9000302780000024200bf
:100e68003073200000b8b900000242008401780005
:100e7800028fbe001e00be005a0107000080fa0063
:100e8800000006000400fa0010079800a1e2a9007b
:100e98008560a9009109200091407800f0c8b3004e
:100ea80000c0600099e0b7008d60a900a682a90083
:100eb8001e0090006f4060006f416000612a2000b2
:100ec8009140780000cfb30000c06000024070007d
:100ed800a6e2b7000000eb005015880090042e0031
:100ee8002015880000bc20001015880090c12f0034
:100ef80000158800c01220000100200039010700f9
:100f0800a022a800c012200001002000350107001f
:100f1800a022a900a0c2bf00614060000004e00058
:100f2800fcff320000148000000f7800a1e2a90045
:100f38001e0078000080fa00000006000000fa0099
:100f4800ffff37000000fa000000eb0000088800ef
:100f580004c1a8000421a90005e1a8000080fa0046
:100f6800000006000000fa0005e1a9000080fa0070
:100f7800000006000000fa00000880000080fa0067
:100f8800000006000000fa000000eb0030088800ae
:100f980010c1a8001021a90011e1a8000080fa00e2
:100fa800000006000000fa0011e1a9000080fa0024
:100fb800000006000000fa00300880000080fa00f7
:100fc800000006000000fa00c03a280012fd0700e1
:100fd800c8c2bf00624060000004e00006003200a2
:100fe800c8c2bf00644060000004e00002003a008c
:100ff8001300070010003700c8c2bf00624060003d
:101008000004e0000b003a00c8c2bf006440600062
:101018000004e00007003200010037002800070044
:10102800c8c2bf00644060000004e000fbff3a0053
:10103800010037003f0007000080fa0000000600aa
:101048000000fa00303c2800f3fc070057000700b6
:101058007b0007005f0007004006200076ff0700be
:1010680052000700401f200073ff070080000700a0
:1010780058000700400620006fff07004b000700dc
:10108800401f20006cff0700730007005100070095
:101098004006200068ff070044000700401f2000aa
:1010a80065ff0700780007004a0007004006200097
:1010b80061ff07003d0007000080fa0000000600fd
:1010c8000000fa00a03d2800d3fc0700000037000c
:1010d800d5c2bf00624060000004e0000300320097
:1010e800203f2800ccfc070020000700c8c2bf0032
:1010f8000042b2000004e00003003200c0402800b3
:10110800c5fc070021000700d5c2bf00624060008f
:101118000004e00004003a00c8c2bf000042b20068
:101128000004e000eaff3200070007003f00070064
:10113800e7ff37000000fa0070422800b6fc0700fd
:101148000080fa00000006000000fa00c04b2800ea
:10115800b1fc0700d1e2a8004001200036ff0700db
:10116800d1e2a9000080fa00000006000000fa00a1
:10117800ca62a8000080fa00000006000000fa0019
:10118800ca62a9000080fa00000006000000fa0008
:10119800ca82a8000080fa00000006000000fa00d9
:1011a800ca82a9000080fa00000006000000fa00c8
:1011b800f04c280098fc0700cb22a900cb02a9001c
:1011c800cae2a900cac2a900180007000080fa00f4
:1011d800000006000000fa00cbc2bf0061406000ba
:1011e8000004e00004003a00cbc2bf006240600087
:1011f8000004e00001003200e4ff0700cac2bf009b
:1012080001c8b300014060000004e00004003a0097
:10121800cac2bf000044b2000004e000010032006e
:10122800d2ff07000080fa00000006000000fa0064
:10123800d2ff0700d9ff07000080fa00000006006f
:101248000000fa00904d280073fc0700cb22a8008c
:101258000080fa00000006000000fa00a04e2800f6
:101268006dfc0700cb02a8000080fa000000060011
:101278000000fa00c04f280067fc0700cae2a80077
:101288000080fa00000006000000fa00e050280084
:1012980061fc0700cac2a8000080fa00000006002e
:1012a8000000fa00dbfe0700803e2000e2fe070097
:1012b8001d0007002052280057fc0700c8c2bf00c5
:1012c800624060000004e000020032003053280051
:1012d80051fc0700c8c2bf00644060000004e00081
:1012e80002003200f05328004bfc0700c8c2bf00c0
:1012f800624060000004e00004003a00c8c2bf0079
:10130800644060000004e000020032002dff070086
:1013180001003700defd070008ff07000000eb00b2
:101328000080fa00000006000000fa00c622a800ab
:10133800c642a800c662a900c682a900c6a2a80023
:10134800cde2a900d322a800c722a900c702a9009c
:10135800c6e2a900c6c2a900a822a800a842a800ff
:10136800a862a800a882a800a8a2a800a922a8008c
:10137800a902a800a8e2a800a8c2a8000080fa0054
:04138800000006005b
:020000040000fa
:10138c0000080000260000000200000002082800ef
:10139c0008000000280809000000000002002600d8
:1013ac0008000000260806000201000000000000f2
:1013bc000000000000000600020200000000000017
:1013cc002608000006000000000000002c080000a9
:1013dc0002000000020000000100000000000000fc
:020000040000fa
:1013ec00f03fb1000180b10006003500ee030900aa
:1013fc0000000000403fb1000180b100fbff3d0048
:10140c001000b000203fb000020035000080090041
:08141c000000000000000600c2
:00000001FF
