:020000040000fa
:080000000001040000000000f3
:020000040000fa
:100200006f8e20000eff20000e018800000000000d
:100210000c00070020bb2000010020001100070097
:10022000000020000000e000020032000000020098
:1002300000000000d00c0200000000000040da00c6
:100240000000fe004440a900600920000000e0001a
:100250000300320000002000a00188004440a800f4
:100260000000060091018800800078000000eb008b
:1002700015003700e280400032a0b4009101ba00be
:10028000e280400032a0b4009102ba00e280400057
:1002900032a0b4000002eb00472bde00f507b200ed
:1002a000602ce10004003a000059eb008301e900f2
:1002b000fdff3e00040037006128e100010032002c
:1002c0000082eb00040007001101ba000200e00008
:1002d000e8ff3a00000006003159ba008301e90046
:1002e0000c0032002159ba008301e90008003200f5
:1002f0000400e00003003a00e280400032a0b400b5
:10030000f5ff370011d9ba008301e900faff3a007e
:100310008100e800e180400032a0b4000000060047
:100320000040da000000fe008520a9008540a900f9
:10033000e7416000c419dd00810920009140780088
:10034000f2c8b30082c0600083c070008000fd006e
:1003500098e0b7008000fd00800178000307b2003c
:10036000c419de00910920009140780082cfb300cb
:1003700082c0600083c070008000fd0099e0b7007b
:100380008000fd00680160004311de000241410071
:10039000d1082000914078000114a10082c07000b3
:1003a0008000fd008de0b7008000fd000008b20075
:1003b0004700de004200dd00d108200091407800b7
:1003c0000124a10080c07000010078008de0b7001a
:1003d00000000600a21088006010880071108800dc
:1003e00000000600889fbe000004be000600370023
:1003f0000804e8000000fb008900780019000700ed
:10040000e10f400004003200184078000004e000d2
:10041000f7ff3a000000eb004f04be0000000600aa
:10042000881f7800e18a2000eeff070000047800b2
:10043000e18a2000a00020000a00070008007800e0
:100440004f047800000006000000fa00cfb89700c3
:1004500068815700e08a20008f0007000080fa00c2
:1004600000000600889fbe000001780001047800ab
:10047000b10090000118a300400032000198a300d1
:1004800003003a00180090000000e0003b003a0032
:100490000190a0003104980082047800f90fb200a6
:1004a000180090000000e00002003a0028009000d0
:1004b000000c7800ea8f540006003a0038009000e3
:1004c0000078a30003003a0088007800d0002000e4
:1004d000e4ff0700180290006121b9005800900065
:1004e000e8009000800f5100818f59000b0032000e
:1004f0000400e800100498001800780009587800fb
:10050000000c780011c0b300208e20000148780054
:10051000ea8f540006003200190037008800780086
:1005200009407800190007008004780014003700a3
:10053000380090000088a3001100320018019000dc
:10054000a8009000480090007c02070098009000ee
:10055000810f500004003200380090000003b30007
:10056000300498008084eb000000eb001004980039
:1005700028009000000c7800010037008084eb0018
:10058000090078004f04be00000006000200fa00d7
:10059000889fbe00a0ff9f0001047800b10090007a
:1005a000810478000904b200020032000000fb0060
:1005b000360037000118a30005003a000103b3001c
:1005c00031049800190498000080eb002f003700d8
:1005d000580090000000e00006003a00480090003b
:1005e00012002000e680570054020700190498000a
:1005f00024003700280090000000e00008003a00c6
:10060000e08d200020049800000c780020002000dd
:1006100050049800100498000130a00031049800a4
:1006200018019000a80090004800900043020700c5
:1006300028009000000c78000080eb001004980067
:1006400018007800aff8970001587800000c780087
:100650002ff89700ea4f50000a003a003800900047
:100660000088a3000700320018019000a800900045
:10067000480090003102070019049800a80090007b
:10068000010c7800aff897000100fb004f04be009a
:100690000080fa0000000600fa874700889fbe002d
:1006a0008a9fbe008c9fbe008e1f7800f0b79f000f
:1006b0000107780082bf9f000000eb00c0b79f00d9
:1006c000130237008046eb0050c2b30080cf5000c9
:1006d000090032000100fb00ffb0970061ff070036
:1006e000e10f40000a023200cfb097008100e8001d
:1006f000c1b79f00060237009e407800d0c2b30009
:1007000080cf50000c00320007003c006d405000cc
:1007100080cf50000a0032006b40400080cf500074
:100720000e003a000800370000c3b30080cf50002d
:100730000a003a00060037000d34a000050037001b
:100740000d04a000030037000d14a00001003700c5
:100750000d24a0000e07e800e7ff37000d18a300e6
:10076000010032000d04a1000d38a3000100320089
:100770000d24a1000100fb0002fd2f00020040003b
:10078000e90f50000e003e000002eb00d4b79f00be
:10079000820178005fb397006a30b9001e01fb0048
:1007a0000001410003014100d2b79f005e00fb0041
:1007b00003004000e90f50000b003e00f5ff37003a
:1007c0000006eb00dcb79f00a0c2b30080cf500052
:1007d00005003a000fb89700c000780080bf9f0066
:1007e000d1b79f000e07e8000001eb0092b79f0011
:1007f000e0c2b3009e4f100017003a008e00e800e0
:1008000064405000914f1000020032000107780050
:100810000c0037000fba97004403780084bf9f0094
:1008200096b79f000e87e8000b0037001fb69700b1
:100830006a60b900000041000300400090b79f00cb
:100840000e07e8001e01fb0003fd2f00030041001e
:10085000e90f5000f5ff3600be407800a1df9f0091
:1008600030c7b30080cf50001a00320009003c00ae
:100870007040500080cf500064003200694040005a
:1008800080cf50000a0032000104e000a4013200d1
:100890007d00370050c7b30080cf50007e0032008b
:1008a0006340400080cf500077003a0006003700d8
:1008b0000040eb000d48a30001003a0000c1b30066
:1008c00080c67600e4ff37008d4278000574a000f2
:1008d000730037008fb897004100780081bf9f00f8
:1008e000000478000000e00001003a00688c20005d
:1008f0008004eb00010037008104e80089007800e3
:10090000088044001004e000fbff3a001fb197008c
:100910000200e00003003200890f510001003100a5
:10092000820478000002eb0084b79f005fb3970059
:10093000890f5300020036000900530080b79f0062
:100940004368de00e10660001b003a000d067800f7
:1009500009003700ffb0970000022000c1fe070029
:10096000e10f4000030032004fb097000000e800a4
:10097000c0b79f000c06e8008fb09700810f5600ab
:10098000f4ff3a000081eb0082b79f000a003700b5
:10099000880078003100fb0001047800ffb0970068
:1009a000b0fe0700e10f4000030032004fb2970095
:1009b0000402e800c4b79f000900e9008004780041
:1009c000e10f4000f2ff3a000006eb000d00e000ee
:1009d0000a003a004e013700ffb0970000022000e5
:1009e000a0fe0700e10f4000030032004fb3970064
:1009f0000603e800c6b79f000c06e8000fb097009a
:100a0000800f5600f4ff3a00410137008fb897007d
:100a10004100780081bf9f00cf80de000101780097
:100a2000820178000205be000004be000203be0081
:100a30000002be004822de00482edd0004027600df
:100a4000a4df9f000d48a3000a0032000404e00068
:100a500008003200e14f420006003200b1fd2f00d5
:100a600001804700044878001840980029002000c1
:100a700002003700b0df9f0019002000b2fd2f00f8
:100a800002844700a1ff3700a4fd2f000484470023
:100a9000190020009dff370000ccb30080c2760013
:100aa0000583fb00e6b79f000648a300070032005d
:100ab0000fbe97004c00be008cbf9f006011b800b5
:100ac0000205be000004be00070037008fb8970083
:100ad0004100780081bf9f000004780009002000d9
:100ae0000a0020000b0020001fb197000200e00068
:100af00007003a00e00f5400e08f5c00e00f5d005b
:100b0000e08f5d0002003a001400200094b79f00bf
:100b1000efb09700010cb20000082000808f500059
:100b200014003200000c2000808f500025003a0095
:100b300014c0b300068020000b0037000400fb0047
:100b40004300dd00060040005001be004000be0032
:100b50000040e10001c8e10002d0e10003d8e1005b
:100b6000170039000442e800f44f5200f3ff3a0046
:100b70001300370000012000010020006011b800c0
:100b800014c0b3000040e10001c8e10002d0e10060
:100b900003d8e1000a003900460020000000d00020
:100ba0008180d2000281d2008381d2000603e90055
:100bb000faff3a000442e800f04f5200f1ff3a0019
:100bc000a4df9f002fde97000c00fb009fb0970072
:100bd000810f500002003d00a1df9f00040037009c
:100be0001fb19700800f510001003d0090b79f009a
:100bf0005fb297000400e000050032006fb3970079
:100c000063006300020032000402e900d4b79f00d1
:100c10008582fb00a5b79f002fde97000c00fb002c
:100c20008000eb00f1af9f005fb19700800f510093
:100c30000200340000005100f0af9f002fb2970077
:100c40000428a300350032006fb39700e100630071
:100c50000418a3000c003200d00220000100e000c4
:100c600001003a000080e900ffb09700fdfd070099
:100c7000e10f40000e0032004fb697000c06e8006e
:100c8000ccb79f000a0037000100e00008003200e6
:100c9000ffb0970000022000f2fd0700e10f4000c6
:100ca000030032004fb097000000e800c0b79f007b
:100cb000ffa897000100e0000f0032000006eb00e3
:100cc000ffb0970000032000e6fd0700e10f4000a1
:100cd000030032004fb197000201e800c2b79f0045
:100ce0000c06e8007faa9700840f5600f4ff3a0034
:100cf0000003eb00f6af9f001fb697004360dd00d6
:100d0000817f2000810640004260dd0064065000c3
:100d10000000eb00b0b79f0066003700ffa8970007
:100d20000100e000120032002fb19700680061005e
:100d30000f003a0000067800ffb097000002200084
:100d4000c8fd0700e10f4000030032004fb29700da
:100d50000402e800c4b79f000c06e8007fab9700d0
:100d6000860f5600f4ff3a000006eb00fcaf9f0030
:100d70006fb09700e10060002fb197000218a30048
:100d80000c003200d00220000100e00001003a0017
:100d90000080e900ffb09700b2fd0700e10f4000be
:100da000d5ff32004fb297000402e800c4b79f009d
:100db000d1ff37000100e000cfff3200ffb0970005
:100dc00000022000a7fd0700e10f4000caff32002b
:100dd0004fb397000603e800c6b79f00c6ff370071
:100de000efb09700010cb20000082000808f500087
:100df00010003200000c2000808f50001f003a00cd
:100e00003d02be002d03be000800be000a01be0068
:100e100028010700a4002000050020006033b8006e
:100e20002b01070004c3b30004424000a4df9f006d
:100e30001200370014002000050020006033b800c5
:100e40000c0078000000e900050033000402d00027
:100e50008582d2000683d2008783d200f9ff370053
:100e60000800be000a01be00120107006f0060000a
:100e7000d48c200064427800a4df9f00afd8970094
:100e80000100fb00ffb0970076fd0700e10f400076
:100e9000030032004fb197000201e800c2b79f0083
:100ea0003fb297000402e800b4b79f00e8865600fe
:100eb000640656003fb397001fb09700800f5300a1
:100ec000c7ff3a00afb097000138a300100032000e
:100ed0007fa997000200e0000d0034000006eb003f
:100ee000ffb09700000220005efd0700e10f400008
:100ef000030032004fb297000402e800c4b79f001d
:100f00000c06e8007fab9700860f5600f4ff3a000e
:100f1000be407800a1df9f000104e000e9fd3a0037
:100f20004fb097004f0778004f06be004f05be0038
:100f30004f04be00af01b100000006000a00fa0035
:100f400080017800e20f500028003e00204780001a
:100f5000e10f500008003200e02120000000e00016
:100f6000050032006421200085212000a6212000f8
:100f70008001780004003700c4202000e520200014
:100f80000621200043212000144090000004e000ce
:100f9000040035008009eb00144090000074a000ac
:100fa00010429800154090000028a30003003a006a
:100fb000154090000024a000904298008001eb00b2
:100fc00007003700154090000008a300fdff320025
:100fd00063c078000000fb00000b78008301e8008c
:100fe000828f5100f7ff3a000800370030002000e0
:100ff000b0bf9f00c3bf9f00d1bf9f00e2bf9f0053
:101000006a80570000c0da006fb9970002007800cc
:101010000080fa0000000600881f780000047800b5
:101020005001be004000be00040040008580480022
:101030000601490087814900009cbe000294be0061
:101040000400e1000588e1000690e1000798e10056
:1010500002003100680044001008e8004f047800e6
:1010600000000600f4874700889fbe008a9fbe00ec
:101070008c9fbe008e1f78000205be000004be00db
:10108000d4b79f00e5b79f00f6b79f0087bf9f00ca
:101090000000eb00c0b79f00b0b79f00a0b79f0053
:1010a00090b79f0080b79f000d042000bfb097004d
:1010b0004fb09700000140000000e0000f003d002d
:1010c0004f08de0000007100c0b79f004d00070010
:1010d00001003d00120020005000070001003d000b
:1010e000120020005500070061000700660007009d
:1010f0000f004000c8ff0700220037004f08de0045
:1011000000067100ccb79f003e00070001003d00c3
:10111000120020004100070001003d0012002000e5
:1011200046000700520007000fb297009fb29700d9
:101130002fb39700bfb3970059000700000052007b
:1011400081805a0002015b0083815b0080b79f00b1
:1011500091b79f00a2b79f00b3b79f000007eb00b5
:101160004f0007000020e10001a8e10002b0e1000b
:1011700003b8e100010031001e0020000e005600ff
:10118000c0b79f004fb297000400e0000700350091
:1011900010002000010020006011b8000804700059
:1011a000898470000a0571008b8571008d06e90045
:1011b000beff3a000400e00003003d0032000700db
:1011c0000f00400094ff07004fa897000000e000c8
:1011d00004003a000fb497009fb497002fb5970012
:1011e000bfb597000800be000a01be004f07780097
:1011f0004f06be004f05be004f04be004f01b100b8
:10120000000006000180400090b79f000001eb0045
:101210008fb097000100e00000000600020070009f
:1012200090b79f000180400080b79f000001eb0055
:10123000ffa897000100e000000006000200700017
:1012400080b79f00018040006faa9700cf20de008a
:1012500001007000f0af9f00040242000800be00d1
:101260000a01be004f18de000002720000000600f6
:10127000e4af9f000804440089844c000a054d0037
:101280008b854d00000006003fb29700cfb297005b
:101290005fb39700efb3970000fe2f000000060039
:1012a0003fb09700cfb097005fb19700efb19700c4
:1012b00000000600881f780018002000881f7800b2
:1012c00068ff07008f87e9004f04780000000600e0
:1012d000801feb0063ff07008f87e9000000060016
:1012e000889fbe008a9fbe008c1f78000205be004a
:1012f0000004be00e00f5000e08f5800e00f5900de
:10130000e08f59000c003d006000b8006011b8008b
:1013100008045000898458000a0559008b8559003b
:101320001c0020001f00070008003d0018000700f7
:101330000006eb00050037000006eb00190007006f
:1013400002003d000f0007001c0020000800be0046
:101350000a01be00d7ff07000203be000002be0064
:101360000c00e00001003200060007000400be008f
:101370000601be004f0678004f05be004f04be00b8
:10138000000006006000b8006011b80000003700df
:1013900004025000858258000603590087835900d3
:1013a00000000600e00f5200e08f5a00e00f5b00e3
:1013b000e08f5b0000000600889fbe008a9fbe0091
:1013c0008c1f78000205be000004be00e00f500034
:1013d000e08f5800e00f5900e08f59000a003d00ef
:1013e0006000b8006011b8000804500089845800fb
:1013f0000a0559008b8559001c00200018000700c1
:1014000007003d00050037000006eb001400070050
:1014100003003d006000b8006011b800150007002f
:101420000800be000a01be00a9ff07000203be00bb
:101430000002be000c00e000030032006000b800b3
:101440006011b8000b0007000400be000601be00da
:101450004f0678004f05be004f04be000000060096
:10146000e00f5200e08f5a00e00f5b00e08f5b005e
:10147000000006000402500085825800060359004f
:081480008783590000000600fb
:020000040000fa
:0200000401f009
:0400000000c100003b
:020000040000fa
:0200000401f009
:040004003f000000b9
:020000040000fa
:1000080090010000900100009001000090010000a4
:100018009001000090010000900100009001000094
:100028009001000090010000900100009001000084
:100038009001000090010000900100009001000074
:100048009001000090010000900100009001000064
:100058009001000090010000900100009001000054
:100068009001000090010000900100009001000044
:100078009001000090010000900100009001000034
:100088009001000090010000900100009001000024
:100098009001000090010000900100009001000014
:1000a8009001000090010000900100009001000004
:1000b80090010000900100009001000090010000f4
:1000c80090010000900100009001000090010000e4
:1000d80090010000900100009001000090010000d4
:1000e80090010000900100009001000090010000c4
:0800f8009001000090010000de
:020000040000fa
:1001080090010000900100009001000090010000a3
:100118009001000090010000900100009001000093
:100128009001000090010000900100009001000083
:100138009001000090010000900100009001000073
:100148009001000090010000900100009001000063
:100158009001000090010000900100009001000053
:100168009001000090010000900100009001000043
:100178009001000090010000900100009001000033
:100188009001000090010000900100009001000023
:100198009001000090010000900100009001000013
:1001a8009001000090010000900100009001000003
:1001b80090010000900100009001000090010000f3
:1001c80090010000900100009001000090010000e3
:1001d80090010000900100009001000090010000d3
:1001e80090010000900100009001000090010000c3
:0801f8009001000090010000dd
:020000040000fa
:1014880054680000652000007265000064200000b8
:101498004c4500004420000069730000206f0000e4
:1014a8006e2e0000005400006865000020720000e5
:1014b80065640000204c00004544000020690000dd
:1014c800732000006f660000662e000000540000c4
:1014d800686500002067000072650000656e000006
:1014e800204c0000454400002069000073200000e3
:1014f8006f6e00002e000000546800006520000098
:1015080067720000656500006e2000004c45000011
:101518004420000069730000206f00006666000028
:101528002e0000005468000065200000726f000063
:10153800626f0000742000006973000020750000cd
:1015480070200000616e00006420000072750000c9
:101558006e6e0000696e0000672100002100000027
:10156800526f0000626f000074200000776900006d
:101578006c6c000020730000687500007420000087
:10158800646f0000776e00002e2e00002e200000f1
:10159800000000004543000045200000527500008f
:0c15a8006c6500007321000000000000d2
:020000040000fa
:1015b4000000fa0070f72f005afb070022002000f9
:1015c400f17d2f00800b2a0081fb07000080fa00c8
:1015d400000006000600fa00200798002e00900084
:1015e4006103b80086007800307320000009b80059
:1015f4006030b9000302780000024200307320001a
:1016040000b8b9000002420084017800028fbe00d5
:101614001e00be00f40007000080fa00000006006f
:101624000400fa0010079800a1e2a9008560a9004f
:101634009109200091407800f0c8b30000c0600018
:1016440099e0b7008d60a900a682a9001e00900051
:101654006f4060006f416000612a20009140780073
:1016640000cfb30000c0600002407000a6e2b700e3
:101674000000eb005015880090042e00201588000f
:1016840000bc20001015880090c12f0000158800b0
:10169400c012200001002000d3000700a022a800ef
:1016a400c012200001002000cf000700a022a900e2
:1016b400a0c2bf00614060000004e000fcff3200f3
:1016c40000148000000f7800a1e2a9001e00780039
:1016d4000080fa00000006000000fa00ffff370057
:1016e4000000fa000000eb000008880004c1a80014
:1016f4000421a90005e1a8000080fa00000006000a
:101704000000fa0005e1a9000080fa0000000600cc
:101714000000fa00000880000080fa0000000600c3
:101724000000fa000000eb003008880010c1a80097
:101734001021a90011e1a8000080fa0000000600b1
:101744000000fa0011e1a9000080fa000000060080
:101754000000fa00300880000080fa000000060053
:020000040000fa
:10176400a00800002600000002000000a208e0001b
:1017740008000000e0080900000000000200de008c
:1017840008000000de08060002010000000000005e
:10179400000000000000060002020000000000003b
:1017a400de08000006000000000000000008000041
:1017b400a000000002000000010000000000000082
:1017c40000000a00000000000000000000640000a7
:1017d4000000000000000000e8030000000000001a
:1017e40000001000270000000000000000a0860098
:1017f400010000000000000040420f000000000053
:101804000000800096980000000000000000e10045
:10181400f50500000000000000ca9a003b0000002b
:1018240000000000e40b5400020000000000e80087
:1018340076481700000000000010a500d4e800005e
:1018440000000000a0724e001809000000004000d3
:101854007a10f3005a0000000080c600a47e8d00b8
:101864000300000000c16f00f286230000000000a6
:101874008a5d78004563010000006400a7b3b600e8
:10188400e00d000000e889000423c7008a0000007e
:10189400c60800001800000002000000286e750051
:1018a4006c6c290000303100323334003536370097
:1018b400383961006263640065660000e408000072
:1018c400020000000200000001000000000000000f
:020000040000fa
:1018d4000200fa0060a92800d0fa07000000eb001b
:1018e400000f78000d00370014000700803e200030
:1018f40038ff070017000700a00f200035ff07007e
:101904001a000700803e200032ff07001d00070078
:10191400a00f20002fff07001e0fe800400020004a
:101924009e0f1000f0ff340040ab2800bbfa070004
:1019340069ff07000080fa00000006000000fa00ba
:1019440040a42800b5fa0700ca62a8000080fa0083
:10195400000006000000fa0070a52800affa070096
:10196400ca62a9000080fa00000006000000fa0024
:10197400b0a62800a9fa0700ca82a8000080fa00cd
:10198400000006000000fa0000a82800a3fa0700df
:10199400ca82a9000080fa00000006000000fa00d4
:1019a40003ff070009000700c9ff0700e0ac280097
:1019b400801f7800a3fa07008f87e90046ff07001d
:1019c4000000eb000080fa00000006000000fa00ae
:1019d400c662a900a862a800c682a900a882a800bd
:0819e4000080fa00000006007b
:020000040000fa
:1019ec00f03fb1000180b10006003500ee030900a4
:1019fc0000000000403fb1000180b100fbff3d0042
:101a0c001000b000203fb00002003500008009003b
:081a1c000000000000000600bc
:00000001FF
