:020000040000fa
:080000000001040000000000f3
:020000040000fa
:100200008f8f20000eff20000e01880000000000ec
:100210000c0007006004210001002000110007000d
:10022000000020000000e000020032000000020098
:100230000000000020130200000000000040da006f
:100240000000fe004440a900201120000000e00052
:100250000300320000002000a00188004440a800f4
:100260000000060091018800800078000000eb008b
:1002700015003700e280400032a0b4009101ba00be
:10028000e280400032a0b4009102ba00e280400057
:1002900032a0b4000002eb00472bde00f507b200ed
:1002a000602ce10004003a000059eb008301e900f2
:1002b000fdff3e00040037006128e100010032002c
:1002c0000082eb00040007001101ba000200e00008
:1002d000e8ff3a00000006003159ba008301e90046
:1002e0000c0032002159ba008301e90008003200f5
:1002f0000400e00003003a00e280400032a0b400b5
:10030000f5ff370011d9ba008301e900faff3a007e
:100310008100e800e180400032a0b4000000060047
:100320000040da000000fe008520a9008540a900f9
:10033000e7416000c419dd00810920009140780088
:10034000f2c8b30082c0600083c070008000fd006e
:1003500098e0b7008000fd00800178000307b2003c
:10036000c419de00910920009140780082cfb300cb
:1003700082c0600083c070008000fd0099e0b7007b
:100380008000fd00680160004311de000241410071
:10039000d1082000914078000114a10082c07000b3
:1003a0008000fd008de0b7008000fd000008b20075
:1003b0004700de004200dd00d108200091407800b7
:1003c0000124a10080c07000010078008de0b7001a
:1003d00000000600a21088006010880071108800dc
:1003e00000000600889fbe000004be000600370023
:1003f0000804e8000000fb008900780019000700ed
:10040000e10f400004003200184078000004e000d2
:10041000f7ff3a000000eb004f04be0000000600aa
:10042000881f7800818d2000eeff0700000478000f
:10043000818d2000a00020000a000700080078003d
:100440004f047800000006000000fa00cfb89700c3
:1004500068815700808d20008f0007000080fa001f
:1004600000000600889fbe000001780001047800ab
:10047000b10090000118a300400032000198a300d1
:1004800003003a00180090000000e0003b003a0032
:100490000190a0003104980082047800f90fb200a6
:1004a000180090000000e00002003a0028009000d0
:1004b000000c7800ea8f540006003a0038009000e3
:1004c0000078a30003003a0088007800d0002000e4
:1004d000e4ff0700180290006121b9005800900065
:1004e000e8009000800f5100818f59000b0032000e
:1004f0000400e800100498001800780009587800fb
:10050000000c780011c0b300408f20000148780033
:10051000ea8f540006003200190037008800780086
:1005200009407800190007008004780014003700a3
:10053000380090000088a3001100320018019000dc
:10054000a800900048009000080307009800900061
:10055000810f500004003200380090000003b30007
:10056000300498008084eb000000eb001004980039
:1005700028009000000c7800010037008084eb0018
:10058000090078004f04be00000006000200fa00d7
:10059000889fbe00a0ff9f0001047800b10090007a
:1005a000810478000904b200020032000000fb0060
:1005b000360037000118a30005003a000103b3001c
:1005c00031049800190498000080eb002f003700d8
:1005d000580090000000e00006003a00480090003b
:1005e00012002000e6805700e0020700190498007e
:1005f00024003700280090000000e00008003a00c6
:10060000008f200020049800000c780020002000bb
:1006100050049800100498000130a00031049800a4
:1006200018019000a800900048009000cf02070039
:1006300028009000000c78000080eb001004980067
:1006400018007800aff8970001587800000c780087
:100650002ff89700ea4f50000a003a003800900047
:100660000088a3000700320018019000a800900045
:1006700048009000bd02070019049800a8009000ef
:10068000010c7800aff897000100fb004f04be009a
:100690000080fa0000000600fe874700889fbe0029
:1006a0008a9fbe008c9fbe008e1f7800f0b79f000f
:1006b0000107780082bf9f000000eb00a0b79f00f9
:1006c0009f0237008006eb0050c2b30080cf50007d
:1006d000090032000100fb00ffb0970061ff070036
:1006e000e10f400096023200afb097008100e800b1
:1006f000a1b79f00920237009e407800d0c2b3009d
:1007000080cf50000c00320007003c006d405000cc
:1007100080cf50000a0032006b40400080cf500074
:100720000e003a000800370000c3b30080cf50002d
:100730000a003a00060037000d30a000050037001f
:100740000d00a000030037000d10a00001003700cd
:100750000d20a0000e07e800e7ff37000d18a300ea
:10076000010032000d00a1000d38a300010032008d
:100770000d20a1000100fb0002fd2f00020040003f
:10078000e90f50000e003e000002eb00c4b79f00ce
:1007900082017800cfb297006a28b9001e01fb00e1
:1007a0000001410003014100c2b79f005e00fb0051
:1007b00003004000e90f50000b003e00f5ff37003a
:1007c0000006eb00ccb79f00a0c2b30080cf500062
:1007d00005003a000fb89700c000780080bf9f0066
:1007e000c1b79f000e07e8000001eb00b2b79f0001
:1007f000e0c2b3009e4f100018003a000de0a000c8
:100800008e00e80064405000914f1000020032005a
:10081000010778000c0037000fba9700c402780077
:1008200084bf9f00b5b79f000e87e8000b0037001c
:100830003fb697006a60b900000041000300400025
:10084000b0b79f000e07e8001e01fb0003fd2f005c
:1008500003004100e90f5000f5ff3600be4078006c
:10086000e1d79f00c0c6b30080cf50002200320005
:100870000f003c006940500080cf500077003200ec
:1008800004003c000104e000310232006b405000e3
:100890000f00370040c6b30080cf500093003200f5
:1008a0006540400080cf50008b003a008f00370039
:1008b00030c7b30080cf50001a00320007003c0060
:1008c0006440500080cf5000110032000040e8002a
:1008d00080cf500080003a000f00370050c7b300af
:1008e00080cf5000800032006340400080cf500035
:1008f00079003a0009003700000028000d48a300e5
:1009000001003a000001200080867600d3ff370006
:100910000d60a000750037000d50a0000d70a00004
:10092000720037008fb897004100780081bf9f00a8
:10093000000478000000e00001003a00088a20006e
:100940008004eb00010037008104e8008900780092
:10095000088044001004e000fbff3a003fb197001c
:100960000200e00003003200890f51000100310055
:10097000820478000002eb00e4af9f00cfb2970042
:10098000898f52000200360009805200e0af9f00bc
:100990004368de00e10660001b003a000d067800a7
:1009a00009003700ffb0970000022000adfe0700ed
:1009b000e10f4000030032002fb097000000e80074
:1009c000a0b79f000c06e800efa89700810f560023
:1009d000f4ff3a000081eb00e2af9f000a0037000d
:1009e000880078003100fb0001047800ffb0970018
:1009f0009cfe0700e10f4000030032002fb2970079
:100a00000402e800a4b79f000900e9008004780010
:100a1000e10f4000f2ff3a000006eb000d00e0009d
:100a20000a003a00c6013700ffb09700000220001c
:100a30008cfe0700e10f400003003200afb29700c8
:100a40008502e800a5b79f000c06e8006fa8970094
:100a5000800f5600f4ff3a00b90137008fb89700b5
:100a60004100780081bf9f00cf80de000101780047
:100a7000820178000205be000004be000203be0031
:100a80000002be004822de00482edd00040276008f
:100a9000e4d79f000d48a3000a0032000404e000e0
:100aa00008003200e14f42000600320071fd2f00c5
:100ab0000180470004487800184098002900200071
:100ac00002003700f0d79f001900200072fd2f00b0
:100ad00002844700a1ff370064fd2f000484470013
:100ae000190020009dff37000d0cb3000d007800a9
:100af000000cb20028003a000d00e00005003d00a7
:100b00008fba97004505be004504be0085bf9f0013
:100b1000140037000d48a3000b0032000fbe9700f1
:100b20004c00be008cbf9f004f89de00cf91de00dd
:100b30000002be0002037800820378000605be00b2
:100b40000404be00070037008fb89700410078000a
:100b500081bf9f0000047800cfc4de000905780043
:100b60008a057800e00f5400e08f5c00e00f5d0024
:100b7000e08f5d001f003d003d00b3006000b80045
:100b80006011b80008045000898458000a05590013
:100b90008b855900170037000d00e00005003d006f
:100ba0000fb997004205be004204be0082bf9f00fd
:100bb000100037000d48a300070032000fba97005d
:100bc0004400be0084bf9f006011b8000205be0053
:100bd0000004be00070037008fba97004500780078
:100be00085bf9f0000047800090020000a00200053
:100bf0000b0020003fb697000c00e00007003a0011
:100c0000e00f5400e08f5c00e00f5d00e08f5d00be
:100c100002003a0010002000b0b79f008d0078005d
:100c2000010cb200e1b79f0000042000808f50004b
:100c30003000320003003c000100e00008003200f8
:100c400040003700000820006fb19700800f51006e
:100c500014003200000c2000800f510039003a00cf
:100c600014c0b300058020000b0037000400fb0017
:100c70004300dd00050040005001be004000be0002
:100c80000040e10001c8e10002d0e10003d8e1002a
:100c90002b0039000442e800f44f5200f3ff3a0001
:100ca0002700370000012000010020006011b8007b
:100cb00014c0b3000040e10001c8e10002d0e1002f
:100cc00003d8e1001e003900450020000000d000dc
:100cd0008180d2000281d2008381d2008502e900a6
:100ce000faff3a000442e800f04f5200f1ff3a00e8
:100cf0001300370080002000010020006011b800c0
:100d000014c0b3000040e10001c8e10002d0e100de
:100d100003d8e1000a0039003c0020000000d000a8
:100d20008180d2000281d2008381d2000c06e900ca
:100d3000faff3a000442e800f54f5200f1ff3a0092
:100d4000e4d79f00efd097000100fb003fb1970070
:100d5000820f500002003d00e2d79f0004003700e0
:100d60003fb29700800f520001003d00b0b79f00d6
:100d7000cfb297000500e0000400320063806600f7
:100d8000020032008502e900c5b79f000de8a3000c
:100d90000b0032004fb697003fb09700800f56000f
:100da00003003c008000eb00c1b79f000400370047
:100db0004fb197003fb2970004015100c2b79f00a6
:100dc000efd297000500fb000006eb00dcaf9f00b0
:100dd000cfb09700808f5000020034000080500098
:100de000d0af9f000d28a30037003200e1806600dd
:100df0000d18a3000c003200d00220000100e0001a
:100e000001003a000080e900ffb0970095fd07005f
:100e1000e10f40000e0032002fb197000201e80000
:100e2000a2b79f000a0037000100e000080032006e
:100e3000ffb09700000220008afd0700e10f40008c
:100e4000030032002fb297000402e800a4b79f000d
:100e5000dfaa97000500e0000f0032000006eb005b
:100e6000ffb09700000320007efd0700e10f400067
:100e7000030032002fb097000000e800a0b79f00e9
:100e80000c06e800dfa89700810f5600f4ff3a0037
:100e90000001eb00d2af9f003fb29700c320dd00fe
:100ea000807f20008080400091b79f004220dd00bd
:100eb0006400500080b79f006320b900f0af9f002e
:100ec0006306500084003700dfaa97000500e000a9
:100ed00011003200688066000f003a0000067800ba
:100ee000ffb09700000220005efd0700e10f400008
:100ef000030032002fb097000000e800a0b79f0069
:100f00000c06e800dfa89700810f5600f4ff3a00b6
:100f10000001eb00d2af9f00e18066000d18a30036
:100f20000c003200d00220000100e00001003a0075
:100f30000080e900ffb097004afd0700e10f400084
:100f4000d5ff32002fb297000402e800a4b79f003b
:100f5000d1ff37000100e000cfff3200ffb0970063
:100f6000000220003ffd0700e10f4000caff3200f1
:100f7000afb297008502e800a5b79f00c6ff370013
:100f800000042000efb09700808f50003100320045
:100f900003003c000100e000080032003e00370082
:100fa000000820006fb19700800f5100110032003f
:100fb000000c2000800f510037003a001fb097004e
:100fc0003002be002003be000800be000a01be00c1
:100fd00044010700a4002000050020006033b80091
:100fe0004701070004c3b30004424000e4d79f0058
:100ff00029003700758a2000d5b79f000d58a3003f
:1010000002003a00808b2000d0b79f00140020001f
:10101000050020006033b8008fb097008100e90020
:10102000050033000402d0008582d2000683d2007e
:101030008783d200f9ff37000800be000a01be0016
:10104000280107006f0060005fb1970062407800e0
:101050001000370014002000050020006033b800a5
:101060000c0078000000e900050033000402d00005
:101070008582d2000683d2008783d200f9ff370031
:101080000800be000a01be001601070067406000ac
:101090000043b000e0d79f00efd097000100fb00b5
:1010a000ffb09700effc0700e10f400003003200a3
:1010b0002fb197000201e800a2b79f001fb297006e
:1010c0006802520094b79f008fb29700e4825200ea
:1010d00085b79f0063065600d0ff2f003fb19700f1
:1010e0000090b9007faa9700000042006300500002
:1010f000800f5600a2ff3a000d38a3001000320006
:10110000dfaa97000500e0000d0034000006eb00a8
:10111000ffb0970000022000d2fc0700e10f400062
:10112000030032002fb097000000e800a0b79f0036
:101130000c06e800dfa89700810f5600f4ff3a0084
:10114000be407800e1d79f000104e0005dfd3a0059
:101150002fb097004f0778004f06be004f05be0026
:101160004f04be00ef01b100000006000a00fa00c3
:1011700080017800e20f500028003e00b047800058
:10118000e10f500008003200e02120000000e000e4
:10119000050032006421200085212000a6212000c6
:1011a0008001780004003700c4202000e5202000e2
:1011b0000621200043212000144090000004e0009c
:1011c000040035008009eb00144090000074a0007a
:1011d00010429800154090000028a30003003a0038
:1011e000154090000024a000904298008001eb0080
:1011f00007003700154090000008a300fdff3200f3
:1012000063c078000000fb00000b78008301e80059
:10121000828f5100f7ff3a000800370030002000ad
:10122000b0bf9f00c3bf9f00d1bf9f00e2bf9f0020
:101230006a80570000c0da006fb99700020078009a
:101240000080fa0000000600881f78000004780083
:101250005001be004000be000400400085804800f0
:101260000601490087814900009cbe000294be002f
:101270000400e1000588e1000690e1000798e10024
:1012800002003100680044001008e8004f047800b4
:1012900000000600f4874700889fbe008a9fbe00ba
:1012a0008c9fbe008e1f78000205be000004be00a9
:1012b000d4b79f00e5b79f00f6b79f0087bf9f0098
:1012c0000000eb00c0b79f00b0b79f00a0b79f0021
:1012d00090b79f0080b79f000d042000bfb097001b
:1012e0004fb09700000140000000e0000f003d00fb
:1012f0004f08de0000007100c0b79f004d000700de
:1013000001003d00120020005000070001003d00d8
:10131000120020005500070061000700660007006a
:101320000f004000c8ff0700220037004f08de0012
:1013300000067100ccb79f003e00070001003d0091
:10134000120020004100070001003d0012002000b3
:1013500046000700520007000fb297009fb29700a7
:101360002fb39700bfb39700590007000000520049
:1013700081805a0002015b0083815b0080b79f007f
:1013800091b79f00a2b79f00b3b79f000007eb0083
:101390004f0007000020e10001a8e10002b0e100d9
:1013a00003b8e100010031001e0020000e005600cd
:1013b000c0b79f004fb297000400e000070035005f
:1013c00010002000010020006011b8000804700027
:1013d000898470000a0571008b8571008d06e90013
:1013e000beff3a000400e00003003d0032000700a9
:1013f0000f00400094ff07004fa897000000e00096
:1014000004003a000fb497009fb497002fb59700df
:10141000bfb597000800be000a01be004f07780064
:101420004f06be004f05be004f04be004f01b10085
:10143000000006000180400090b79f000001eb0013
:101440008fb097000100e00000000600020070006d
:1014500090b79f000180400080b79f000001eb0023
:10146000ffa897000100e0000000060002007000e5
:1014700080b79f00018040006faa9700cf20de0058
:1014800001007000f0af9f00040242000800be009f
:101490000a01be004f18de000002720000000600c4
:1014a000e4af9f000804440089844c000a054d0005
:1014b0008b854d00000006003fb29700cfb2970029
:1014c0005fb39700efb3970000fe2f000000060007
:1014d0003fb09700cfb097005fb19700efb1970092
:1014e00000000600881f780018002000881f780080
:1014f00068ff07008f87e9004f04780000000600ae
:10150000801feb0063ff07008f87e90000000600e3
:10151000889fbe008a9fbe008c1f78000205be0017
:101520000004be00e00f5000e08f5800e00f5900ab
:10153000e08f59000c003d006000b8006011b80059
:1015400008045000898458000a0559008b85590009
:101550001c0020001f00070008003d0018000700c5
:101560000006eb00050037000006eb00190007003d
:1015700002003d000f0007001c0020000800be0014
:101580000a01be00d7ff07000203be000002be0032
:101590000c00e00001003200060007000400be005d
:1015a0000601be004f0678004f05be004f04be0086
:1015b000000006006000b8006011b80000003700ad
:1015c00004025000858258000603590087835900a1
:1015d00000000600e00f5200e08f5a00e00f5b00b1
:1015e000e08f5b0000000600889fbe008a9fbe005f
:1015f0008c1f78000205be000004be00e00f500002
:10160000e08f5800e00f5900e08f59000a003d00bc
:101610006000b8006011b8000804500089845800c8
:101620000a0559008b8559001c002000180007008e
:1016300007003d00050037000006eb00140007001e
:1016400003003d006000b8006011b80015000700fd
:101650000800be000a01be00a9ff07000203be0089
:101660000002be000c00e000030032006000b80081
:101670006011b8000b0007000400be000601be00a8
:101680004f0678004f05be004f04be000000060064
:10169000e00f5200e08f5a00e00f5b00e08f5b002c
:1016a000000006000402500085825800060359001d
:0816b0008783590000000600c9
:020000040000fa
:0200000401f009
:0400000000c100003b
:020000040000fa
:0200000401f009
:040004003f000000b9
:020000040000fa
:1000080090010000900100009001000090010000a4
:100018009001000090010000900100009001000094
:100028009001000090010000900100009001000084
:100038009001000090010000900100009001000074
:100048009001000090010000900100009001000064
:100058009001000090010000900100009001000054
:100068009001000090010000900100009001000044
:100078009001000090010000900100009001000034
:100088009001000090010000900100009001000024
:100098009001000090010000900100009001000014
:1000a8009001000090010000900100009001000004
:1000b80090010000900100009001000090010000f4
:1000c80090010000900100009001000090010000e4
:1000d80090010000900100009001000090010000d4
:1000e80090010000900100009001000090010000c4
:0800f8009001000090010000de
:020000040000fa
:1001080090010000900100009001000090010000a3
:100118009001000090010000900100009001000093
:100128009001000090010000900100009001000083
:100138009001000090010000900100009001000073
:100148009001000090010000900100009001000063
:100158009001000090010000900100009001000053
:100168009001000090010000900100009001000043
:100178009001000090010000900100009001000033
:100188009001000090010000900100009001000023
:100198009001000090010000900100009001000013
:1001a8009001000090010000900100009001000003
:1001b80090010000900100009001000090010000f3
:1001c80090010000900100009001000090010000e3
:1001d80090010000900100009001000090010000d3
:1001e80090010000900100009001000090010000c3
:0801f8009001000090010000dd
:020000040000fa
:1016b80049200000616d0000206900006e200000d4
:1016c80074680000652000007465000073740000f1
:1016d800207300007569000074650000004900006f
:1016e800276d0000206900006e200000746800006b
:1016f800652000006d6f0000746f0000722000000c
:1017080074650000737400002e0000004927000073
:101718006d200000696e00002074000068650000fc
:1017280020620000756d00007065000072200000e6
:1017380074650000737400002e00000074680000d7
:10174800652000006c6500006674000020730000ce
:101758007769000074630000682000006973000066
:10176800206300006c6f00007365000064000000d7
:101778007468000065200000726900006768000056
:1017880074200000202000002020000020200000fd
:101798007377000069740000636800002069000026
:1017a80073200000636c00006f7300006564000024
:1017b80000490000276d0000206900006e2000002d
:1017c80074680000652000006c690000676800000c
:1017d8007420000074650000737400002e0000007f
:1017e800692700006d200000696e00002074000069
:1017f80068650000206c00006f6f0000700000003a
:101808005269000067680000742000004c690000fd
:1018180067680000743a000020250000640d00008d
:101828000a0000004c65000066740000204c0000af
:1018380069670000687400003a2000002025000055
:10184800640d00000a000000202000002020000095
:101858002020000020200000202000002020000080
:1018680020200000202000000d0a000000000000d9
:101878005468000065200000726f0000626f00006d
:10188800744f0000532000006973000020750000a9
:1018980070200000616e0000642000007275000076
:1018a8006e6e0000696e00006721000021000000d4
:1018b800492700006d200000696e000020740000b8
:1018c80068650000206d0000616900006e2100005d
:0418d800000000000c
:020000040000fa
:1018dc000200fa00000f7800200020009e0f10007c
:1018ec0001003a0039000700100020009e0f100084
:1018fc0001003a00050007001e00e00001003a005c
:10190c001a0007000080fa00000006000400fa002c
:10191c0010002000100798000000eb00000f78006a
:10192c000a0037001e0fe800a1020700ae020700f4
:10193c0087020700800c20006e010700840207005c
:10194c00800c20006b010700810207004000200082
:10195c009e0f1000f3ff3400800c2000650107007f
:10196c00b50207000080fa00000006000400fa002f
:10197c000000eb00100798000000eb00000f78004f
:10198c000a0037001e0fe80089020700aa020700b0
:10199c006f020700800c2000560107006c02070044
:1019ac00800c200053010700690207004000200052
:1019bc009e0f1000f3ff3400800c20004d01070037
:1019cc00890207000080fa00000006000c00fa00f3
:1019dc000000eb00200798000000eb003007980097
:1019ec000000eb00400798000000eb005007980047
:1019fc000000eb001007980010002000000f78008a
:101a0c003c0037001e0090000000e8001007980012
:101a1c00e600470064004700d60207006402070096
:101a2c00800c2000330107006f0207000019200012
:101a3c0030010700ea00470068004700cd020700ac
:101a4c00ae0090004e009000808f500006003500d4
:101a5c00ae0090004e0090008080500030062000b8
:101a6c00808f50000a003400ce0090002e009000b1
:101a7c00808f50001d003400ce0090002e0090008e
:101a8c008080500030062000808f500017003c00f2
:101a9c00be0090005e009000808f50000600350064
:101aac00be0090005e009000808050003006200048
:101abc00808f50000a003400de0090003e00900041
:101acc00808f50000b003400de0090003e00900030
:101adc008080500030062000808f500005003c00b4
:101aec0010002000000f7800020037000000eb000f
:101afc00000f78001e00e000400032001e00900035
:101b0c00e30f5000bfff34003c0037001e00900074
:101b1c000000e80010079800e6004700640047004a
:101b2c009402070022020700800c2000f10007003d
:101b3c004102070000192000ee000700ea004700f0
:101b4c00680047008b020700ae0090004e0090002a
:101b5c00808f500006003500ae0090004e009000c3
:101b6c008080500030062000808f50000a00340026
:101b7c00ce0090002e009000808f50001d0034008d
:101b8c00ce0090002e009000808050003006200087
:101b9c00808f500017003c00be0090005e0090004b
:101bac00808f500006003500be0090005e00900053
:101bbc008080500030062000808f50000a003400d6
:101bcc00de0090003e009000808f50000b0034002f
:101bdc00de0090003e009000808050003006200017
:101bec00808f500005003c0010002000000f780092
:101bfc00020037000000eb00000f78001e00e00030
:101c0c00030032001e009000e30f5000bfff3400b1
:101c1c000080fa00000006000200fa00d5c2bf00e6
:101c2c00624060000004e00002003200100020005e
:101c3c00000f7800c8c2bf000042b2000004e000f0
:101c4c00020032000000eb00000f7800d5c2bf008c
:101c5c00624060000004e00006003200c8c2bf0011
:101c6c000042b2000004e00002003200200020001c
:101c7c00000f7800d5c2bf00624060000004e00095
:101c8c0006003a00c8c2bf000042b2000004e000e7
:101c9c0002003a0030002000000f780030002000d5
:101cac009e0f1000010032009b0207001e007800fe
:101cbc000080fa00000006000000fa00c0b5280001
:101ccc00d4f90700c8c2bf00624060000004e00005
:101cdc0006003200c8c2bf00644060000004e0008f
:101cec0002003a001300070010003700c8c2bf0002
:101cfc00624060000004e0000b003a00c8c2bf0064
:101d0c00644060000004e00007003200010037006e
:101d1c0024000700c8c2bf00644060000004e0005b
:101d2c00fbff3a00010037003b0007000080fa007f
:101d3c00000006000000fa0030b72800b5f90700d3
:101d4c00250207002b02070040062000690007004f
:101d5c0021020700401f2000660007002d0207002b
:101d6c0040062000630007001b020700401f2000f4
:101d7c006000070023020700400620005d000700fa
:101d8c0015020700401f20005a000700250207001b
:101d9c0040062000570007000f0207000080fa00e1
:101dac00000006000000fa00a0b8280099f907000e
:101dbc0000003700d5c2bf00624060000004e000a4
:101dcc000300320020ba280092f907003402070001
:101ddc00c8c2bf000042b2000004e00003003200a1
:101dec00c0bb28008bf9070035020700d5c2bf0025
:101dfc00624060000004e00004003a00c8c2bf006a
:101e0c000042b2000004e000eaff32004202070088
:101e1c001e020700e7ff37000000fa00d0bd2800c3
:101e2c007cf907002000370040bf280079f9070033
:101e3c00cda2a900cdc2a900d1a2a800d1c2a800f0
:101e4c00500020002b000700cda2a800cdc2a80096
:101e5c007b0007006a0007005000200025000700e7
:101e6c0083000700801f780040c02800801f780086
:101e7c0072f90700e48757006d000700801f780097
:101e8c0060c12800801f78006cf90700e4875700b8
:101e9c0080c22800801f780068f907008f87e9004e
:101eac00803e200013000700c8c2bf0062406000e3
:101ebc000004e00004003200c8c2bf0064406000af
:101ecc000004e000d8ff3a000080fa000000060091
:101edc000000fa0070f72f0010f907002200200014
:101eec00f17d2f00800b2a0037f907000080fa00e3
:101efc00000006000600fa00200798002e00900053
:101f0c006103b80086007800307320000009b80027
:101f1c006030b900030278000002420030732000e8
:101f2c0000b8b9000002420084017800028fbe00a4
:101f3c001e00be00ea0107000080fa000000060047
:101f4c000400fa0010079800a1e2a9008560a9001e
:101f5c009109200091407800f0c8b30000c06000e7
:101f6c0099e0b7008d60a900a682a9001e00900020
:101f7c006f4060006f416000612a20009140780042
:101f8c0000cfb30000c0600002407000a6e2b700b2
:101f9c000000eb005015880090042e0020158800de
:101fac0000bc20001015880090c12f00001588007f
:101fbc00c012200001002000c9010700a022a800c7
:101fcc00c012200001002000c5010700a022a900ba
:101fdc00a0c2bf00614060000004e000fcff3200c2
:101fec0000148000000f7800a1e2a9001e00780008
:101ffc000080fa00000006000000fa00ffff370026
:10200c000000fa000000eb000008880004c1a800e2
:10201c000421a90005e1a8000080fa0000000600d8
:10202c000000fa0005e1a9000080fa00000006009b
:10203c000000fa00000880000080fa000000060092
:10204c000000fa000000eb003008880010c1a80066
:10205c001021a90011e1a8000080fa000000060080
:10206c000000fa0011e1a9000080fa00000006004f
:10207c000000fa00300880000080fa000000060022
:020000040000fa
:10208c00ca0800002600000002000000cc08f20084
:10209c0008000000f2080900000000000200f00037
:1020ac0008000000f008060002010000000000001b
:1020bc00000000000000060002020000000000000a
:1020cc00f0080000060000000000000000080000fe
:1020dc00a000000002000000010000000000000051
:1020ec0000000a0000000000000000000064000076
:1020fc000000000000000000e803000000000000e9
:10210c0000001000270000000000000000a0860066
:10211c00010000000000000040420f000000000021
:10212c000000800096980000000000000000e10014
:10213c00f50500000000000000ca9a003b000000fa
:10214c0000000000e40b5400020000000000e80056
:10215c0076481700000000000010a500d4e800002d
:10216c0000000000a0724e001809000000004000a2
:10217c007a10f3005a0000000080c600a47e8d0087
:10218c000300000000c16f00f28623000000000075
:10219c008a5d78004563010000006400a7b3b600b7
:1021ac00e00d000000e889000423c7008a0000004d
:1021bc00a00800002a00000002000000286e750034
:1021cc006c6c290000303100323334003536370066
:1021dc00383941004243440045460000303132005a
:1021ec00333435003637380039616200636465007a
:1021fc0066000000f608000002000000020000006b
:08220c000100000000000000c9
:020000040000fa
:102214000400fa008e80e8000e007800d700070062
:102224009e0090001e00780007000700e10f500098
:1022340002003a0082000700010037006c0007002a
:102244000080fa00000006000600fa00100798005b
:10225400210798001e009000410620008080400065
:102264002e009000808f500003003d0010002000dd
:10227400000f7800020037000000eb00000f780028
:102284001e0078000080fa00000006000600fa0034
:10229400e40047000e80e800b80007009e009000ac
:1022a400900a2000808f500007003c00ae00900090
:1022b400d0152000808f500003003c001000200047
:1022c400000f78000d0037009e0090006008200089
:1022d400808f500004003400ae009000d010200025
:1022e400808f500003003c0010002000000f780095
:1022f400020037000000eb00000f78001e00780099
:102304000080fa00000006000600fa00e40047001e
:102314000e80e800990007009e009000703e2000a7
:10232400808f500004003400ae009000703e200006
:10233400808f500003003c0010002000000f780044
:10234400020037000000eb00000f78001e00780048
:102354000080fa00000006000200fa00da0007001c
:10236400caff0700e10f500001003a0024ff0700f4
:10237400e5ff0700e10f500003003a00400620008b
:10238400000f780002003700b0092000000f780029
:102394009a000700e0012000d8fe07009f00070014
:1023a4001e007800d5fe07008d000700ca00070054
:1023b4000080fa00000006000000fa00b3ff0700e6
:1023c400e10f500001003a000dff070097000700dd
:1023d40080072000c9fe07008c000700800720004a
:1023e400c6fe07007e0007000080fa000000060019
:1023f4000200fa00a5ff0700e10f500001003a00b7
:10240400fffe0700c0ff0700e10f500003003a0081
:1024140060042000000f780002003700000520004f
:10242400000f780075000700800007001e00780088
:10243400b2fe07006a0007000080fa0000000600f0
:102444000200fa0091ff0700e10f500001003a007a
:10245400ebfe0700acff0700e10f500003003a0059
:1024640050052000000f780002003700900620007d
:10247400000f780069000700640007001e00780060
:102484009efe0700560007000080fa0000000600c8
:102494000400fa00c0c32800e0f707000000eb00c6
:1024a40010079800acff0700c012200093fe07003d
:1024b400dbfd0700000f7800300020009e0f1000a5
:1024c40005003a001e009000e10f500002003400a5
:1024d4004fff07000b003700300020009e0f100054
:1024e40004003a001e0090000000e8001007980065
:1024f400040037001e007800f7fc07000000eb0022
:1025040010079800c01220007cfe0700e5ff37008a
:102514000000fa00c602a900c622a800c642a8000c
:10252400c662a900c682a900c6a2a800cda2a900bd
:10253400cdc2a800d322a800dea2a900c722a90008
:10254400c702a900c6e2a900c6c2a900a802a80041
:10255400a822a800a842a800a862a800a882a800ef
:10256400a8a2a800a922a800a902a800a8e2a8007d
:10257400a8c2a8000080fa00000006000400fa00c7
:10258400000f780011079800cda2a900cdc2a900c0
:10259400d1a2a800d1c2a8005000200057fe070015
:1025a400cda2a800cdc2a800a7fe070096fe070092
:1025b4005000200051fe0700affe070080007800a5
:1025c4001e009000010878009bfe07008000780040
:1025d4001e007800010878000080fa000000060060
:1025e4000000fa00cb02a900cb22a900cac2a900ac
:1025f400cae2a9000080fa00000006000000fa0008
:10260400cb02a8000080fa00000006000000fa00d7
:10261400cb22a8000080fa00000006000000fa00a7
:10262400cac2a8000080fa00000006000000fa00f8
:10263400cae2a8000080fa00000006000000fa00c8
:1026440025fe0700803e20002cfe0700b0ff070097
:10265400c0c5280071f70700c8c2bf00624060000f
:102664000004e00004003a00c8c2bf0064406000f7
:102674000004e0000200320091fd07000100370071
:1026840083ff07005efe07000000eb000080fa00f5
:10269400000006000000fa00070007000e00070013
:1026a4000080fa00000006000000fa00ca62a800d8
:1026b4000080fa00000006000000fa00ca62a900c7
:1026c4000080fa00000006000000fa00ca82a80098
:1026d4000080fa00000006000000fa00ca82a90087
:0826e4000080fa00000006006e
:020000040000fa
:1026ec00f03fb1000180b10006003500ee03090097
:1026fc0000000000403fb1000180b100fbff3d0035
:10270c001000b000203fb00002003500008009002e
:08271c000000000000000600af
:020000040000fa
:102724000000fa00ca02a80020032000f3fd0700fd
:0c273400ca02a9000080fa0000000600a4
:00000001FF
